:020000040000FA
:10000000680120204D010000510100005301000053
:1000100000000000000000000000000000000000E0
:10002000000000000000000000000000550100007A
:10003000000000000000000057010000C1020000A5
:100040005B010000ED0100005B0100005B010000AE
:100050005B0100005B0100005B0100005B01000030
:10006000000000005B0100005B01000000000000D8
:10007000000000005B0100005B0100005B0100006C
:100080005B0100005B0100005B0100005B01000000
:100090005B0100005B0100000000000000000000A8
:1000A0005B0100005B010000000000000000000098
:1000B0005B010000000000005B0100005B0100002C
:1000C00000F002F800F032F80CA030C8083824180C
:1000D0002D18671EA246AB4654465D46AC4201D180
:1000E00000F024F87E460F3EB6460FCC0126334280
:1000F00000D0FB1A3343A246AB461847FC01000070
:100100000C0200000000000000230024002500264F
:10011000103A01D378C1FBD8520700D330C100D5C3
:100120000B6070471FB51FBD10B510BD00F027F85C
:100130001146FFF7F7FF00F0D1F800F03FF803B4E5
:10014000FFF7F2FF03BC00F045F800000648004747
:10015000FEE7FEE7FEE7FEE7FEE7FEE703480449A9
:10016000024A044B70470000C100000068002020D4
:10017000680120206800202070477047704775464E
:1001800000F024F8AE46050069465346C008C0009A
:10019000854618B020B5FFF7E1FF60BCB6460026E3
:1001A0000027C0C5C0C5C0C5C0C5C0C5C0C5C0C585
:1001B000C0C5403D490849008D46704710B504460A
:1001C000C046C0462046FFF7BAFF10BD0048704742
:1001D0000000202001491820ABBEFEE726000200E7
:1001E0007047811E091F00BFFCD270470648006897
:1001F000012807D105480068400303D5012080038A
:10020000034908607047C0463011404080130A40DF
:10021000B0120A40B0B50D480D4901600D480168A3
:1002200030220A430260012290040B490B6A034307
:100230000B62FF231B02094C25689D43D203AA18B9
:1002400022600A6802430A60B0BDC046A0804240F6
:1002500081000500A0130A4028100A4000E400E0D5
:10026000044881210160012080030349086008637C
:100270007047C04690804240A0120A4080B50A48AC
:100280000A4941600A4A51600A4901601160102020
:10029000FFF7A7FF08480021016008480168032212
:1002A0009143016080BDC04600080A40030000B1D0
:1002B00000280A400100002608030B4000010B4003
:1002C000EFF3108072B604480168002902D001687B
:1002D000491E016062B6704760002020FFF7CEFF24
:1002E000FFF7BEFFFFF796FF014802210160FEE71E
:1002F00000E100E0000000000803000000002020F2
:08030000680100000801000083
:04000005000000C136
:00000001FF
