:020000040000FA
:10000000680120204D010000510100005301000053
:1000100000000000000000000000000000000000E0
:10002000000000000000000000000000550100007A
:100030000000000000000000570100004D02000019
:100040005B0100005B0100005B0100005B01000040
:100050005B0100005B0100005B0100005B01000030
:10006000000000005B0100005B01000000000000D8
:10007000000000005B0100005B0100005B0100006C
:100080005B0100005B0100005B0100005B01000000
:100090005B0100005B0100000000000000000000A8
:1000A0005B0100005B010000000000000000000098
:1000B0005B010000000000005B0100005B0100002C
:1000C00000F002F800F032F80CA030C8083824180C
:1000D0002D18671EA246AB4654465D46AC4201D180
:1000E00000F024F87E460F3EB6460FCC0126334280
:1000F00000D0FB1A3343A246AB461847D401000098
:10010000E401000000000000002300240025002678
:10011000103A01D378C1FBD8520700D330C100D5C3
:100120000B6070471FB51FBD10B510BD00F027F85C
:100130001146FFF7F7FF00F0B5F800F03FF803B401
:10014000FFF7F2FF03BC00F045F800000648004747
:10015000FEE7FEE7FEE7FEE7FEE7FEE703480449A9
:10016000024A044B70470000C100000068002020D4
:10017000680120206800202070477047704775464E
:1001800000F024F8AE46050069465346C008C0009A
:10019000854618B020B5FFF7E1FF60BCB6460026E3
:1001A0000027C0C5C0C5C0C5C0C5C0C5C0C5C0C585
:1001B000C0C5403D490849008D46704710B504460A
:1001C000C046C0462046FFF7BAFF10BD0048704742
:1001D0000000202001491820ABBEFEE726000200E7
:1001E0007047811E091F00BFFCD27047044881215F
:1001F0000160012080030349086008637047C0461E
:1002000090804240A0120A4080B50A480A494160E5
:100210000A4A51600A49016011601020FFF7E1FFAE
:1002200008480021016008480168032291430160E9
:1002300080BDC04600080A40030000B100280A4003
:100240000100002608030B4000010B40EFF3108073
:1002500072B613480168002902D00168491E016086
:1002600062B67047084809494160FF210906084AFB
:1002700013688B430321890759181160002181609D
:10028000072101607047C04610E000E0FF7C0000DD
:1002900020ED00E00249086008680028FCD17047A2
:1002A00060002020FFF7B0FFFFF7DCFFFFF79EFFA5
:1002B0007D20C40001208503044E35612046FFF7F0
:1002C000E9FF35602046FFF7E5FFF6E790120A40A8
:1002D000E00200000000202068010000080100008A
:04000005000000C136
:00000001FF
