:020000040000FA
:1000000010012020D5000000D9000000DB00000016
:1000100000000000000000000000000000000000E0
:10002000000000000000000000000000DD000000F3
:100030000000000000000000DF0000005D0600007E
:10004000E3000000E3000000E3000000E300000024
:100050007D040000E3000000E3000000E300000076
:1000600000000000E3000000E300000000000000CA
:1000700000000000E3000000E3000000E3000000D7
:10008000E3000000E3000000E3000000E3000000E4
:10009000E3000000E300000000000000000000009A
:1000A000E3000000E300000000000000000000008A
:1000B000E300000000000000E3000000E300000097
:1000C0000348854600F0B8F9004800476D07000076
:1000D0001001202003480047FEE7FEE7FEE7FEE7A9
:1000E000FEE7FEE7C1000000F0B51FB488B00B9931
:1000F0000998002448400999C00F4900490809910E
:10010000C0070B990090490049080B91099908987C
:10011000A64608431CD00B990A98084318D00998A2
:1001200001244000420D4800410D099824050003B8
:10013000000B204309900B980003000B20430B9009
:1001400050181C494018002201901446104605E042
:10015000002001460DB0F0BD032801DA034600E09F
:1001600003239C46C11A0AAE0AE05F0008ADED5BAE
:100170004F00F75B7D430027AA187C41491C5B1E9A
:100180006145F2DD410004AB5A522104120C0A43CE
:10019000240C401C0828DFDB01980290009970466F
:1001A00001910090059B049A0799069800F0F1F8D8
:1001B000D0E700000DFCFFFFF0B50C465C4085B0B9
:1001C000E40FE40703944C000026640859009446A9
:1001D000490802460296224321D062460A431ED0B5
:1001E0006200570D4A000E032303550D01240246F9
:1001F0002C492405781B1B0B360B40182343264340
:10020000614600901C46501AB44103D30098401C2C
:10021000009002E0921800985B41002803DA002069
:10022000014605B0F0BD00200121090507468646BC
:1002300011E064461D46141BB54106D36546521BAA
:10024000B341744607430C43A646CD07400849080E
:10025000284392185B4105460D43EAD110461843E6
:1002600013D06046194650407140084306D060469E
:10027000101AB34106D20122002306E00022012316
:10028000DB0702E00122D2435310009874460105B7
:10029000381C6141029C039D0019694100F06CF813
:1002A000BFE70000FD0300000EB5C217C10F5040AC
:1002B000CA0740180021054B0293019200910A469B
:1002C0000B4600F066F803B000BD000033040000E8
:1002D00070B5CD0F4A0009030123090B1B05194313
:1002E0000B4BED070024520D9A4201DA002070BD3D
:1002F000074B34339A4203DC9A1A00F02CF802E0E0
:100300000449511888402C43F1D0404270BD000090
:10031000FF030000CDFBFFFF70B50446002903D0AA
:1003200000202022012310E0002801D00020C0433B
:10033000C046C0460DE02546D5408D4205D30D464A
:100340009540641B1D46954040191546521E002DD0
:10035000F1DC214670BD10B5202A04DB0846203AA6
:10036000D040002110BD0B46D340D0402024A21A1B
:1003700091400843194610BD10B5002B08DA00243F
:10038000401C614192185B411A4301D14008400072
:1003900010BDF0B51FB482B005460C0003D008466E
:1003A00000F064FA02E000F061FA203002460090AA
:1003B0002146284600F052F8049B059A04460F4651
:1003C00018431143084314D0184610431BD000981B
:1003D00040210A1A18460599FFF7BDFF05460E464B
:1003E000009A0599049800F039F8084305D00120D7
:1003F00004E02046394607B0F0BD0020C117054390
:100400000E432C43374300990E986305401A790533
:10041000E40A00220C43FD0A0A3002D500200146FE
:10042000E9E70105101969410C9C0D9D001969410E
:10043000FFF7A2FFDFE70000064C0125064E05E0AE
:10044000E36807CC2B430C3C98471034B442F7D3F5
:10045000FFF73AFE2C0A00004C0A000010B5202AD3
:1004600004DB0146203A9140002010BD914020233A
:100470009C1A0346E3401943904010BD04480068AD
:10048000C0B2092802D12B48012101707047C04633
:100490002010004010B50124A0070F4900F04EF8CD
:1004A0000E4841680E4A0A40610451184160816853
:1004B0000C4A0A4082600C4900220A600B494161E3
:1004C00021020B4A136A0B43136213680B43136038
:1004D00001682143016010BD180A000000110040AE
:1004E000FEFFECFFF8FFE0E080110040409C0000C0
:1004F00028100040012000020D490A6802430A60EA
:100500000C48017800290DD120BF0178002909D1BC
:1005100020BF0178002905D120BF0178002901D131
:1005200020BFEEE7044909680022027088B27047D4
:10053000041100400C00202080625540B0B50A78BC
:10054000032313400B4A84580B4D2540EB18A92474
:1005500024061B198350072212064B6813401124EE
:10056000240205599543EA1802510019497801619E
:10057000B0BDC04608080000FCFFFF00811E091F37
:1005800000BFFCD270470000B0B5112212028358A0
:100590000124A34383508B780C881C438B8823430E
:1005A000094C1C408358094D1D402B1983508B79F1
:1005B000CC791C43097A21437E2319408018426874
:1005C0009A4351184160B0BD18670000E798FDFFDD
:1005D00010B50122120383180C789C604978815071
:1005E00010BD000010B5154815494160154A51600D
:1005F000154B5960154C6160154901601160196017
:1006000021601020FFF7BAFF12480021016003208B
:10061000C14311480246083A13680B401360016851
:10062000012291430160110203688B4303601103AF
:10063000001F02680A43026010BDC04600080A405D
:10064000030000B100280A40008810400008004064
:100650000100002608030B4008010B40EFF3108057
:1006600072B638480168002902D00168491E01604D
:1006700062B67047084809494160FF210906084AE7
:1006800013688B4303218907591811600021816089
:10069000072101607047C04610E000E0FF7C0000C9
:1006A00020ED00E010B51748822101601649416035
:1006B000164C17492046FFF78BFF16492046FFF7D7
:1006C00063FF0321CA03144803689343036002696C
:1006D000124B13401A33036142690A433C218A4397
:1006E00042614168012211404368934359184160B7
:1006F00091020B4B1C680C431C60016811430160A4
:1007000010BDC0465480424082000400008010406A
:10071000200A0000220A0000009110400000FFFFA4
:1007200028901040074908600868002808D0086829
:10073000002805D00868002802D008680028F3D1F6
:100740007047C0460800202007490A68D20708D031
:100750000A68D20705D00A68D20702D00A68D20711
:10076000F3D1C2B28A61704708911040FFF73AFF97
:10077000FFF790FEFFF796FFFFF77CFF0120C00315
:100780001F4908601F490860102008607D20C400D0
:10079000254E27A7FFF7AEFE85B21BA0294600F025
:1007A00055F82046FFF7BEFF2846FFF77DFD0025E0
:1007B0002A46194BFFF700FD184A194BFFF794FC26
:1007C0002A46184BFFF790FCFFF782FD81B23246B4
:1007D0004A43D20C0A252B465343C01A83B23046F3
:1007E0005043C00C6843101A82B288080F4948432E
:1007F000410C384600F02AF82046FFF793FFC9E77E
:1008000080E200E000E100E04144432076616C7545
:10081000653A2025640D0A0000FEAF4066666666F4
:1008200066660A4000005940CDCC00007B140000F1
:10083000566F6C746167652076616C75653A20252A
:10084000642E2564256420560D0A00000FB410B5EF
:1008500003A9044B044A029800F036F810BC08BC07
:1008600004B0184749070000000020202021020C96
:1008700001D010211046020A01D0104608390209A1
:1008800001D01046091F820801D01046891E420877
:1008900001D0881E7047081A704700000000000051
:1008A00002E008C8121F08C1002AFAD170470000F0
:1008B0007047000000000000002001E001C1121F8D
:1008C000002AFBD170470000FFB58DB0044600251B
:1008D00006E025280AD0109A0F999047641C6D1CD9
:1008E00020780028F5D1284611B0F0BD002701215D
:1008F000484A009700E00743641C23780846203BE1
:1009000098401042F7D120782E2817D104200743B1
:100910006078641C2A280CD10E98641C02C80091CF
:100920000E900BE000990A22514330394018641CA4
:1009300000902078014630390929F3D92078002821
:10094000D1D0642808D0692806D075281ED0109A06
:100950000F9990476D1C5BE00A200E99019001C928
:100960000E91002802DA40422D2102E0390504D51B
:100970002B216A461172012103E0F90704D02021DE
:10098000F7E70BAE0B910DE00021FAE70A200E9974
:10099000019001C90E91F7E70199FFF7BDFC3031D5
:1009A000761E31700028F7D103A8801B20300190FB
:1009B000780701D5009801E0012000900199884254
:1009C00001DD401A00E000200027009006E002A8A8
:1009D000109AC05D0F9990476D1C7F1C0B98874241
:1009E000F5DB04E0109A30200F9990476D1C0099B8
:1009F000481E00900029F5DC05E03078109A761C3E
:100A00000F9990476D1C0199481E01900029F4DC54
:100A1000641C65E7092801000105000000000003CF
:100A2000040000001800000000300000500A000020
:100A30000000202008000000A0080000580A000064
:100A40000800202008010000B80800000000000095
:080A500000000000000000009E
:04000005000000C136
:00000001FF
