:020000040000FA
:10000000680120204D010000510100005301000053
:1000100000000000000000000000000000000000E0
:10002000000000000000000000000000550100007A
:1000300000000000000000005701000085030000E0
:100040005B0100005B0100005B0100005B01000040
:100050005B0100005B0100005B0100005B01000030
:10006000000000005B0100005B01000000000000D8
:10007000000000005B0100005B010000F5030000D0
:10008000A10300005B0100005B0100005B010000B8
:100090005B0100005B0100000000000000000000A8
:1000A0005B0100005B010000000000000000000098
:1000B0005B010000000000005B0100005B0100002C
:1000C00000F002F800F032F80CA030C8083824180C
:1000D0002D18671EA246AB4654465D46AC4201D180
:1000E00000F024F87E460F3EB6460FCC0126334280
:1000F00000D0FB1A3343A246AB46184774030000F6
:1001000084030000000000000023002400250026D6
:10011000103A01D378C1FBD8520700D330C100D5C3
:100120000B6070471FB51FBD10B510BD00F027F85C
:100130001146FFF7F7FF00F07BF900F03FF803B43A
:10014000FFF7F2FF03BC00F045F800000648004747
:10015000FEE7FEE7FEE7FEE7FEE7FEE703480449A9
:10016000024A044B70470000C100000068002020D4
:10017000680120206800202070477047704775464E
:1001800000F024F8AE46050069465346C008C0009A
:10019000854618B020B5FFF7E1FF60BCB6460026E3
:1001A0000027C0C5C0C5C0C5C0C5C0C5C0C5C0C585
:1001B000C0C5403D490849008D46704710B504460A
:1001C000C046C0462046FFF7BAFF10BD0048704742
:1001D0000000202001491820ABBEFEE726000200E7
:1001E0007047811E091F00BFFCD27047B0B5364A68
:1001F00080184A6842600A78222A57D8930001A4DE
:10020000E3589F46A3020000AD020000A3020000D5
:10021000AD020000AD020000AD020000AD02000022
:10022000AD020000AD020000AD020000AD02000012
:10023000AD020000AD020000AD020000AD02000002
:10024000AD02000091020000AD020000910200002A
:10025000AD020000AD020000AD020000AD020000E2
:10026000AD020000AD020000AD020000AD020000D2
:10027000AD020000AD020000AD020000AD020000C2
:10028000AD02000091020000AD02000091020000EA
:1002900003231B0704689C4301235B07E3180360E7
:1002A00004E003231B0704689C4304600B8AC360BB
:1002B000CB68064C1C40C36A054D1D402B19C36218
:1002C000097A11430160B0BD04180000777702007D
:1002D0008888FDFF10B50122120383180C789C60FA
:1002E0004B7883508978014A815010BD0C11000071
:1002F00004488121016001208003034908600863EC
:100300007047C04690804240A0120A4010B5154880
:1003100015494160154A5160154B5960154C616093
:10032000154901601160196021601020FFF759FF25
:100330001248002101600320C14311480246083AD7
:1003400013680B40136001680122914301601102A0
:1003500003688B4303601103001F02680A430260B5
:1003600010BDC04600080A40030000B100280A4042
:1003700000881040004808400100002608030B4098
:1003800008010B40EFF3108072B6044801680029A1
:1003900002D00168491E016062B6704760002020EB
:1003A00004480068C0B2012803D10120800302493B
:1003B0000860704720500840B0120A4010B5084C41
:1003C00008492046FFF786FF07492046FFF70EFF42
:1003D000064801680122114301600548026010BD12
:1003E0000040084054040000580400002850084011
:1003F000085108400B480068C0B20B2811D10A48C8
:10040000C1690A4A117011780268D20708D00268DF
:10041000D20705D00268D20702D00268D207F3D112
:1004200081617047209010400891104064002020A6
:10043000FFF76CFFFFF75CFFFFF7C0FF0120000430
:100440000249086002490860FEE7C04680E200E019
:1004500000E100E008076300020000003F9C00008C
:10046000010000000000000000000000000000008B
:100470008004000000002020680100000801000046
:04000005000000C136
:00000001FF
