:020000040000FA
:10000000680120204D010000510100005301000053
:1000100000000000000000000000000000000000E0
:10002000000000000000000000000000550100007A
:10003000000000000000000057010000C1070000A0
:100040005B0100005B0100005B0100005B01000040
:100050005B0100005B0100005B0100005B01000030
:10006000000000005B0100005B01000000000000D8
:10007000000000005B0100005B010000610800005F
:100080005B0100005B0100005B0100005B01000000
:100090005B0100005B0100000000000000000000A8
:1000A0005B0100005B010000000000000000000098
:1000B0005B010000000000005B0100005B0100002C
:1000C00000F002F800F032F80CA030C8083824180C
:1000D0002D18671EA246AB4654465D46AC4201D180
:1000E00000F024F87E460F3EB6460FCC0126334280
:1000F00000D0FB1A3343A246AB461847E408000081
:10010000F408000000000000002300240025002661
:10011000103A01D378C1FBD8520700D330C100D5C3
:100120000B6070471FB51FBD10B510BD00F027F85C
:100130001146FFF7F7FF00F0FBFB00F03FF803B4B8
:10014000FFF7F2FF03BC00F045F800000648004747
:10015000FEE7FEE7FEE7FEE7FEE7FEE703480449A9
:10016000024A044B70470000C100000068002020D4
:10017000680120206800202070477047704775464E
:1001800000F024F8AE46050069465346C008C0009A
:10019000854618B020B5FFF7E1FF60BCB6460026E3
:1001A0000027C0C5C0C5C0C5C0C5C0C5C0C5C0C585
:1001B000C0C5403D490849008D46704710B504460A
:1001C000C046C0462046FFF7BAFF10BD0048704742
:1001D0000000202001491820ABBEFEE726000200E7
:1001E000704782B001900199881E001F00BFFCD2A9
:1001F000009002B0704784B003900291019203987E
:100200000068009000980199884300900098029936
:10021000019A114008430399086004B0704784B004
:100220000390029101920398006800900098019950
:100230008843009000980299019A1140084303995D
:10024000086004B0704782B0019000910098019955
:1002500095225201885002B07047000082B0019090
:10026000009100980199074A885002B07047C04633
:1002700082B00190009100980199024A885002B022
:100280007047C046D012000081B000900099012054
:10029000C202F248885001B07047C04681B0009059
:1002A00000988100084A8120885001B07047C046FC
:1002B00082B0019000910098802108430199890043
:1002C000014A885002B070470480424081B00090DB
:1002D0000099F74A6B48885001B070470649086892
:1002E0000122904308607047034908680122120206
:1002F000904308607047C04608010B4003490868F6
:1003000001221203104308607047C04604010B40ED
:1003100081B001466846017000780249086001B06A
:100320007047C04608030B4080B582B0014601A863
:100330000170017802480322FFF771FF02B080BD0F
:1003400000010B4081B000900099CF4A01208850F5
:1003500001B0704781B0009000990120C202BF48EF
:10036000885001B07047C04680B58AB009900891A6
:10037000089800790790002804D0FFE70798202804
:1003800012D029E0099808990968491E00F050F92F
:10039000099888210691002200F098F8069909989A
:1003A000012200F093F82AE0099808990968491E8B
:1003B00000F03EF909982D490491002200F086F8DA
:1003C000049909980122059200F080F8059909988E
:1003D000490700F01DF912E00998089909684908D1
:1003E00000F026F909980521C9010391002200F0C7
:1003F0006DF803990998012200F068F8FFE7099861
:100400000023019319461A4600F07AF8019A0998D8
:1004100001230293114600F073F8019B09980093A1
:1004200019461A4600F0A4F8019B02990998009118
:1004300019461A4600F09CF8019B099819461A467D
:1004400000F07CF8019A029B0998114600F076F8BA
:10045000099876494018089A117952791143022275
:100460001143034AFFF7C7FE0AB080BD0104000034
:10047000BFFF003081B0009000998D4A8D488850B0
:1004800001B07047030000B182B001900091009864
:10049000019911221202885002B0704780B584B0D1
:1004A0000390029101A802700399224A89180091D1
:1004B000017800988900401800900098029907225E
:1004C0009204FFF798FE04B080BDC04680B584B0AA
:1004D0000390029101A802700399074A89180091BC
:1004E0000178009889004018009000980299034A0A
:1004F000FFF781FE04B080BD70180000DBB6C1FFBD
:1005000010B586B005900491039202A80370059976
:10051000084A8918019101780198890040180190D2
:1005200001980499039A1143034AFFF764FE06B049
:1005300010BDC046301800007777020010B586B0B5
:1005400005900491039202A8037005993122D2010B
:10055000891801910178019889004018019001984B
:100560000499039A11438F22FFF745FE06B010BD90
:1005700010B587B00091044600980999069405903B
:100580000492039302A801700699084A8918019100
:100590000178019889004018019005980499084352
:1005A000039908430199086007B010BD5018000076
:1005B00084B00390029101A802700399064A891839
:1005C00000910178009889004018009002980099E5
:1005D000086004B07047C0461018000082B0019057
:1005E0000091009800780199074A88500098407857
:1005F0000199012212038850009880780199034ADA
:10060000885002B07047C046081000000C1100006E
:1006100080B582B00190009101980449401800997A
:1006200003221207FFF7E7FD02B080BD04180000A7
:1006300082B00190009100980199024A885002B05E
:100640007047C0460818000081B000900099012052
:10065000C2020248885001B07047C046010000261F
:1006600081B000900098812149014058C0B201B08A
:100670007047000081B00090009803494058012164
:10068000084001B07047C0460811000081B00090DA
:10069000009802494058C0B201B0704724110000D0
:1006A00081B000900099024A0248885001B070471A
:1006B00004080000030000B182B001906846017098
:1006C0000078019989225201885002B070470000D9
:1006D00080B582B02320FFF7E1FD01208103019165
:1006E0005C480090FFF7AFFD00980199FFF7B6FD59
:1006F00002B080BD80B582B000200190FFF708FEF7
:100700000198FFF711FEFFF7E9FDFFF7EDFDFFF799
:10071000F5FD02B080BD80B500F004F8FFF7EAFFF8
:1007200080BD000080B584B04A480090FFF7CEFD40
:100730000E480190FFF7CAFDA5480290FFF7B0FFF1
:1007400098480390FFF796FE0098FFF79DFD0198EB
:10075000FFF79AFD0298FFF777FF0398FFF7FAFD7E
:100760001020FFF73EFD04B080BDC04600200A40C7
:1007700080B584B002900298401E000E002803D07D
:10078000FFE70120039011E00298401E094908602C
:1007900000200190C043032100F078F80198064939
:1007A0000860064A072111600390FFE7039804B030
:1007B00080BDC04614E000E018E000E010E000E07A
:1007C00081B0EFF3108072B600905848006800289E
:1007D00005D0FFE755490868401E0860FFE762B68C
:1007E00001B0704780B57D200002FFF7C1FF80BDDA
:1007F00080B584B023200521FFF75AFD0120039026
:1008000081031448FFF734FD134966480290FFF74F
:10081000E5FE02981149FFF7A7FD02987D21C90066
:1008200000220192FFF7C4FE019B02980093194633
:100830001A46FFF79DFE019A02981146FFF72EFE19
:100840000298FFF77FFD02980399FFF71DFE04B0A1
:1008500080BDC04600000A40D4090000D80900004D
:1008600080B55B48FFF7FCFE0B280AD1FFE758482C
:10087000FFF70CFF014604480170007800F094F87F
:1008800000E0FFE780BDC0466400202070B582B064
:10089000024601A80270009100214056002816D49B
:1008A000FFE7002401A908570322D3431840174A41
:1008B000805809578C07E50EFF24AC40A043009CEC
:1008C000A401E4B2AC402043194088501AE001A9C9
:1008D00008780F24204008380322D34318400A4ADE
:1008E0008058002549578D07EE0EFF25B540A843D7
:1008F000009DAD01EDB2B5402843214008391940B3
:100900008850FFE702B070BD1CED00E000E400E09D
:1009100081B00090009805490860FFE7034800682F
:10092000002801D0FFE7F9E701B070476000202000
:1009300080B582B000200190FFF7EDFEFFF7C8FE02
:10094000FFF756FFFFF74EFFFFE700200090FFE79D
:100950000098134988420DDCFFE7009911480022F6
:10096000FFF726FE0120FFF7D3FFFFE70098401CAA
:100970000090EDE70A480090FFE7009801280DDBA2
:10098000FFE7009907480022FFF712FE0120FFF75A
:10099000BFFFFFE70098401E0090EEE7D5E7C04696
:1009A000E70300000000874080B582B001A908700D
:1009B000FFE70748FFF75EFE002801D0FFE7F8E7F2
:1009C00001A801780248FFF777FE02B080BDC0465B
:1009D0000080104008070000E8030000000100004C
:1009E000F00900000000202068010000080100005C
:04000005000000C136
:00000001FF
