:020000040000FA
:1000000038012020D5000000D9000000DB000000EE
:1000100000000000000000000000000000000000E0
:10002000000000000000000000000000DD000000F3
:100030000000000000000000DF000000610300007D
:10004000E3000000E3000000E3000000E300000024
:10005000E3000000E3000000E3000000E300000014
:1000600000000000E3000000E300000000000000CA
:1000700000000000E3000000E3000000E3000000D7
:10008000E3000000E3000000E3000000E3000000E4
:10009000E3000000E300000000000000000000009A
:1000A000E3000000E300000000000000000000008A
:1000B000E300000000000000E3000000E300000097
:1000C0000348854600F040F800480047C90C00008E
:1000D0003801202003480047FEE7FEE7FEE7FEE781
:1000E000FEE7FEE7C1000000F0B51FB406460020A1
:1000F00082B005464024019100901BE00199224600
:100100000F46304600F042F8049A059B801A994148
:1001100010D310461946224600F028F8361A8F41AF
:100120000197224601200021009F00F01FF8381897
:100130004D4100902046641E0028DFDC019B0098A2
:100140002946324607B0F0BD064C0125064E05E0B3
:10015000E36807CC2B430C3C98471034B442F7D3E8
:10016000FFF7B2FF141100003411000010B5202A6F
:1001700004DB0146203A9140002010BD914020232D
:100180009C1A0346E3401943904010BD10B5202A45
:1001900004DB0846203AD040002110BD0B46D34076
:1001A000D0402024A21A91400843194610BD811E58
:1001B000091F00BFFCD27047B0B51122120283584C
:1001C0000C4C1C400B894D881D438B792B430A4DE9
:1001D0001D4063198350CB798C881C4309782143D7
:1001E0005D239B001940801842689A435118416072
:1001F000B0BDC04680CCFFFF7F33000010B50122A8
:10020000120383180C785C604978815010BD00009F
:10021000B0B51122120283580124A34383508B7876
:100220000C881C438B882343094C1C408358094D80
:100230001D402B1983508B79CC791C43097A2143BB
:100240007E231940801842689A4351184160B0BD1E
:1002500018670000E798FDFF10B50122120383180C
:100260000C789C604978815010BD0000B0B51348EF
:10027000832141670167124A02601248416481216B
:100280000160012568041049086008630F4C10499B
:100290002046FFF7B3FF0F492046FFF78DFF0E48BA
:1002A00041680E4A0A404260816812220A432D21A9
:1002B0008A438260016829430160B0BD10804240DA
:1002C0009E000400AC804240A0320A4000A046409C
:1002D000EC100000EE10000004B1464000FCFFFFEF
:1002E00010B5164816494160164A5160164B5960C0
:1002F000164C616016490160116019602160102080
:10030000FFF755FF2420134900220A5412480260C7
:100310000320C14311480246083A13680B4013609A
:100320000168012291430160110203688B4303605D
:100330001103001F02680A43026010BD00080A4052
:10034000030000B100280A400088104000A8464081
:10035000010000260C00202008030B4008010B4080
:10036000EFF3108072B604480168002902D00168DA
:10037000491E016062B670470800202008480949FC
:100380004160FF210906084A13688B43032189074E
:100390005918116000218160072101607047C04633
:1003A00010E000E0FF7C000020ED00E010B51748F1
:1003B0008221016016494160164C17492046FFF71B
:1003C0004BFF16492046FFF723FF0321CA031448B9
:1003D0000368934303600269124B13401A330361AD
:1003E00042690A433C218A4342614168012211402B
:1003F000436893435918416091020B4B1C680C43AE
:100400001C6001681143016010BDC0465480424029
:100410008200040000801040F8100000FA10000074
:10042000009110400000FFFF28901040F0B582B00E
:1004300001267404C44F3C61C44D03232B632B6815
:10044000DB0608D52B68DB0605D52B68DB0602D555
:100450002B68DB06F3D42B6A2B68DB0608D52B68E8
:10046000DB0605D52B68DB0602D52B68DB06F3D44B
:100470000B0CDBB22B632B68DB0608D52B68DB0685
:1004800005D52B68DB0602D52B68DB06F3D42B6A77
:100490002B68DB0608D52B68DB0605D52B68DB0649
:1004A00002D52B68DB06F3D40B0ADBB22B632B6877
:1004B000DB0608D52B68DB0605D52B68DB0602D5E5
:1004C0002B68DB06F3D42B6A2B68DB0608D52B6878
:1004D000DB0605D52B68DB0602D52B68DB06F3D4DB
:1004E000C9B229632968C90608D52968C90605D58E
:1004F0002968C90602D52968C906F3D4296A29687A
:10050000C90608D52968C90605D52968C90602D5CE
:100510002968C906F3D4002A27D001941146314036
:100520000091012A24D10021009A002A019C864FC3
:100530001BD0FF222A632A68D20608D52A68D20671
:1005400005D52A68D20602D52A68D206F3D42A6ACB
:100550002B68DB0608D52B68DB0605D52B68DB0688
:1005600002D52B68DB06F3D442543C6002B0F0BDE8
:10057000B243002103E00355891C9142D4D0FF24EB
:100580002C632B68DB0608D52B68DB0605D52B68AA
:10059000DB0602D52B68DB06F3D42B6A2F68FF0637
:1005A00008D52F68FF0605D52F68FF0602D52F68EE
:1005B000FF06F3D443542C630C4634432B68DB060C
:1005C00008D52B68DB0605D52B68DB0602D52B6822
:1005D000DB06F3D42B6A2F68FF06CCD52F68FF0605
:1005E000C9D52F68FF06C6D52F68FF06F3D4C2E72A
:1005F000B0B501204004DC490861DC4A9023136354
:100600001368DB0608D51368DB0605D51368DB061F
:1006100002D51368DB06F3D4136A1368DB0608D52A
:100620001368DB0605D51368DB0602D51368DB0605
:10063000F3D4002313631468E40608D51468E406B1
:1006400005D51468E40602D51468E406F3D4146AE8
:100650001468E40608D51468E40605D51468E406B1
:1006600002D51468E406F3D413631468E40608D5CD
:100670001468E40605D51468E40602D51468E40697
:10068000F3D4146A1468E40608D51468E40605D5A2
:100690001468E40602D51468E406F3D413631368FF
:1006A000DB0608D51368DB0605D51368DB0602D523
:1006B0001368DB06F3D4136A1368DB0608D51368E6
:1006C000DB0605D51368DB0602D51368DB06F3D419
:1006D000FF2414631368DB0608D51368DB0605D511
:1006E0001368DB0602D51368DB06F3D4136A1568BA
:1006F000ED0608D51568ED0605D51568ED0602D599
:100700001568ED06F3D414631468E40608D514687C
:10071000E40605D51468E40602D51468E406F3D4AB
:10072000146A1568ED0608D51568ED0605D5156837
:10073000ED0602D51568ED06F3D408601802E1B2A3
:10074000081880B2B0BDC04690320A4010B1464091
:10075000F0B501214904844A1161844B06241C63CD
:100760001C68E40608D51C68E40605D51C68E40688
:1007700002D51C68E406F3D41C6A1C68E40608D59C
:100780001C68E40605D51C68E40602D51C68E4066E
:10079000F3D4116002E01160F60737D0116105242F
:1007A0001C631D68ED0608D51D68ED0605D51D689E
:1007B000ED0602D51D68ED06F3D41D6A1D68ED0631
:1007C00008D51D68ED0605D51D68ED0602D51D6826
:1007D000ED06F3D4FF251D631E68F60608D51E68D6
:1007E000F60605D51E68F60602D51E68F606F3D491
:1007F0001E6A1F68FF06CED51F68FF06CBD51F688F
:10080000FF06C8D51F68FF06F3D4C4E71161202690
:100810001E631E68F60608D51E68F60605D51E6816
:10082000F60602D51E68F606F3D41E6A1E68F606A2
:1008300008D51E68F60605D51E68F60602D51E68A0
:10084000F606F3D40609F6B21E6300031E68F60628
:1008500008D51E68F60605D51E68F60602D51E6880
:10086000F606F3D41E6A1E68F60608D51E68F6065C
:1008700005D51E68F60602D51E68F606F3D4000AF2
:10088000F02606401E631868C00608D51868C00622
:1008900005D51868C00602D51868C006F3D4186AD2
:1008A0001868C00608D51868C00605D51868C006BF
:1008B00002D51868C006F3D4002018631868C00673
:1008C00008D51868C00605D51868C00602D518688E
:1008D000C006F3D4186A1868C00608D51868C006A0
:1008E00005D51868C00602D51868C006F3D4116093
:1008F00002E01160C00735D011611C631868C006A2
:1009000008D51868C00605D51868C00602D518684D
:10091000C006F3D4186A1868C00608D51868C0065F
:1009200005D51868C00602D51868C006F3D41D6343
:100930001868C00608D51868C00605D51868C0062E
:1009400002D51868C006F3D4186A1E68F606D0D51A
:100950001E68F606CDD51E68F606CAD51E68F606D0
:10096000F3D4C6E7F0BDC04690320A4010B146400D
:10097000F0B585B015460C460490080BFFF7E8FE6D
:10098000012003904004BC490861BC4A062313635C
:100990001368DB0608D51368DB0605D51368DB068C
:1009A00002D51368DB06F3D4136A1368DB0608D597
:1009B0001368DB0605D51368DB0602D51368DB0672
:1009C000F3D40295086002E00860F50737D00861AB
:1009D000052313631668F60608D51668F60605D5CE
:1009E0001668F60602D51668F606F3D4166A166877
:1009F000F60608D51668F60605D51668F60602D579
:100A00001668F606F3D4FF2717631668F60608D5AE
:100A10001668F60605D51668F60602D51668F606B7
:100A2000F3D4166A1568ED06CED51568ED06CBD55C
:100A30001568ED06C8D51568ED06F3D4C4E708615E
:100A4000022515631568ED0608D51568ED0605D570
:100A50001568ED0602D51568ED06F3D4156A15681C
:100A6000ED0608D51568ED0605D51568ED0602D525
:100A70001568ED06F3D4250CEDB215631568ED0687
:100A800008D51568ED0605D51568ED0602D515687B
:100A9000ED06F3D4156A1568ED0608D51568ED0660
:100AA00005D51568ED0602D51568ED06F3D4250ABF
:100AB000EDB215631568ED0608D51568ED0605D588
:100AC0001568ED0602D51568ED06F3D4156A1568AC
:100AD000ED0608D51568ED0605D51568ED0602D5B5
:100AE0001568ED06F3D4E5B215631568ED0608D573
:100AF0001568ED0605D51568ED0602D51568ED06F5
:100B0000F3D4156A1568ED0608D51568ED0605D508
:100B10001568ED0602D51568ED06F3D4029C002C8D
:100B200009D02646039D2E400196012C40D1002677
:100B3000019C002C7FD1086002E00860E40735D0FA
:100B4000086113631468E40608D51468E40605D543
:100B50001468E40602D51468E406F3D4146A146831
:100B6000E40608D51468E40605D51468E40602D541
:100B70001468E406F3D417631468E40608D514680F
:100B8000E40605D51468E40602D51468E406F3D437
:100B9000146A1568ED06D0D51568ED06CDD5156833
:100BA000ED06CAD51568ED06F3D4C6E705B0F0BD6D
:100BB000AC43002602E0B61CA642B9D0049DAD5D50
:100BC00015631568ED0608D51568ED0605D5156899
:100BD000ED0602D51568ED06F3D4156A1568ED0625
:100BE00008D51568ED0605D51568ED0602D515681A
:100BF000ED06F3D4354603990D4304994D5D156315
:100C00001568ED0608D51568ED0605D51568ED06DD
:100C100002D51568ED06F3D4156A17491568ED0677
:100C2000C9D51568ED06C6D51568ED06C3D5156896
:100C3000ED06F3D4BFE704998C5D14631468E406F1
:100C400008D51468E40605D51468E40602D51468CE
:100C5000E406F3D4146A08491468E40600D46AE789
:100C60001468E40600D466E71468E40600D462E77A
:100C70001468E406F0D45EE790320A4010B14640B2
:100C8000074908600868002808D00868002805D0CF
:100C90000868002802D008680028F3D17047C046D1
:100CA0000800202007490A68D20708D00A68D2073E
:100CB00005D00A68D20702D00A68D207F3D1C2B2BF
:100CC0008A6170470891104086B0FFF709FBFFF773
:100CD0006DFBFFF753FBFFF7C9FA0120C403FFF7D1
:100CE00087FC06461B4804601B48046003AC0025D3
:100CF000258104950395352001901848009018A08F
:100D000000F0E4F91BA0694600F04CF8642738466F
:100D1000FFF7B6FF1BA0314600F044F80526204639
:100D200029463246FFF782FB1B48214600F03AF87D
:100D30001AA029463246FFF71BFE3846FFF7A0FFF0
:100D4000204629463246FFF771FB1348214600F042
:100D500029F8FEE780E200E000E100E031323334C0
:100D600053504920546573742050726F6772616DDF
:100D70000D0000007465737462756666203D202561
:100D8000730D0A00646576696365206964203D20FF
:100D900025780D0A000000000411000036363636B2
:100DA000000000000FB410B503A9044B044A0298D8
:100DB00000F01EF810BC08BC04B01847A50C0000D9
:100DC000000020200000000002E008C8121F08C137
:100DD000002AFAD1704700007047000000000000B0
:100DE000002001E001C1121F002AFBD17047000062
:100DF000FFB58FB00F460446002606E025280AD02E
:100E0000129A11999047641C761C20780028F5D11D
:100E1000304613B0F0BD00250121A14A009500E045
:100E20000543641C23780846203B98401042F7D1C4
:100E300020782E2815D1042005436078641C2A28C8
:100E40000AD101CF641C00900BE000990A225143A3
:100E500030394018641C0090207801463039092947
:100E6000F3D920786C280ED004DC4C2813D06A28E3
:100E700012D104E074280ED07A280DD10BE00120A5
:100E80004005054307E00121090562780D438242D0
:100E900001D16D18641C641C2078864669284AD0EC
:100EA00008DC0028B4D058286DD0632810D06428FE
:100EB00008D140E070286BD0732812D0752860D01C
:100EC000782860D0129A704611999047761CE5E018
:100ED0003878694608720020487202A80190012003
:100EE00003E0386801900020C0433F1D69070CD51E
:100EF000002500E06D1C00998D420FDA8542F9DB78
:100F00000199495D0029F5D108E0002500E06D1C3C
:100F10008542FCDB0199495D0029F8D1761907E08B
:100F2000019801990078491C0191129A11999047F2
:100F30006D1EF5D2B2E00A20029000216802400F37
:100F4000039102280CD001CFC117844600290DDA85
:100F50006246084652420021814194462D2008E015
:100F6000FF1DFF08FF0003CF8446EFE7280504D5E7
:100F70002B206A46107401203CE0E8073AD020207C
:100F8000F7E70A2000E0102000210391029007E01B
:100F900010200290002104200543082003910090B6
:100FA0006802400F022810D001CF002184460020A3
:100FB0000D9028071FD5704670280CD0029A10207B
:100FC000039B42401A430CD015E0FF1DFF08FF00B1
:100FD00003CF8446EBE740206A46107401200D9051
:100FE0000CE06046084306D030206A461074704614
:100FF000507402200D907046582804D029A001900A
:101000000DA80E900DE02CA0F9E76046039B029A14
:10101000FFF76AF8019B84469B5C0E9A521E0E9263
:10102000137060460843F0D10E9805A9081A2030C5
:101030000190680701D5009801E001200090019916
:10104000884203DD01460198081A00E000200025CF
:10105000009006E004A8129A405D119990476D1C1B
:10106000761C0D988542F5DB04E0129A3020119928
:101070009047761C0099481E00900029F5DC08E096
:101080000E980E990078491C0E91129A119990476A
:10109000761C0199481E01900029F1DC641CB4E61D
:1010A000092801003031323334353637383961623E
:1010B0006364656600000000303132333435363702
:1010C00038394142434445460000000010B504460B
:1010D00001E0FFF7E7FD2078641C03490028F8D100
:1010E0000A20FFF7DFFD10BD0000202008000400EB
:1010F000200000000710001004000000180000008D
:101100000030000074656D7062756666203D2025B4
:10111000730D0A00381100000000202008000000B4
:10112000C80D000040110000080020203001000020
:10113000E00D0000000000000000000000000000C2
:04000005000000C136
:00000001FF
