:020000040000FA
:1000000010012020D5000000D9000000DB00000016
:1000100000000000000000000000000000000000E0
:10002000000000000000000000000000DD000000F3
:100030000000000000000000DF000000C50200001A
:10004000E3000000E3000000E3000000E300000024
:10005000E3000000E3000000E3000000E300000014
:1000600000000000E3000000E300000000000000CA
:1000700000000000E3000000E3000000E3000000D7
:10008000E3000000E3000000E3000000E3000000E4
:10009000E3000000E300000000000000000000009A
:1000A000E3000000E300000000000000000000008A
:1000B000E300000000000000E3000000E300000097
:1000C0000348854600F010F800480047DD0A0000AC
:1000D0001001202003480047FEE7FEE7FEE7FEE7A9
:1000E000FEE7FEE7C1000000064C0125064E05E0D4
:1000F000E36807CC2B430C3C98471034B442F7D349
:10010000FFF7E2FF7C0C00009C0C0000811E091F21
:1001100000BFFCD270470000B0B511221202835814
:100120000C4C1C400B894D881D438B792B430A4D89
:100130001D4063198350CB798C881C430978214377
:100140005D239B001940801842689A435118416012
:10015000B0BDC04680CCFFFF7F33000010B5012248
:10016000120383180C785C604978815010BD000040
:10017000B0B51122120283580124A34383508B7817
:100180000C881C438B882343094C1C408358094D21
:100190001D402B1983508B79CC791C43097A21435C
:1001A0007E231940801842689A4351184160B0BDBF
:1001B00018670000E798FDFF10B5012212038318AD
:1001C0000C789C604978815010BD0000B0B5134890
:1001D000832181604160124A02604167812101638D
:1001E000012568040F49086008630F4C0F49204639
:1001F000FFF7B4FF0E492046FFF78EFF0D48416818
:100200000D4A0A404260816812220A432D218A4326
:100210008260016829430160B0BDC0467C804240D5
:1002200083000400A0320A4000A04640580C0000A1
:100230005A0C000004B1464000FCFFFF0C480021AE
:1002400001600320C1430B480246083A13680B4083
:1002500013600168012291430160110203688B431E
:1002600003601103001F02680A4302607047C04622
:1002700008030B4008010B4080B500F003F8FFF7BE
:10028000DDFF80BD10B5094809494160094A516048
:10029000094B5960094C616009490160116019609E
:1002A00021601020FFF732FF10BDC04600080A4051
:1002B000030000B100280A400088104000A8464012
:1002C00001000026EFF3108072B60448016800298F
:1002D00002D00168491E016062B670470800202004
:1002E000084809494160FF210906084A13688B4301
:1002F00003218907591811600021816007210160DD
:100300007047C04610E000E0FF7C000020ED00E0F8
:1003100010B517488221016016494160164C1749F3
:100320002046FFF749FF16492046FFF721FF03212A
:10033000CA0314480368934303600269124B1340D5
:100340001A33036142690A433C218A43426141688E
:1003500001221140436893435918416091020B4BAD
:100360001C680C431C6001681143016010BDC0464D
:10037000548042408200040000801040640C000061
:10038000660C0000009110400000FFFF2890104014
:10039000F0B501214904F54A1161F54B06241C63AF
:1003A0001C68E40608D51C68E40605D51C68E4064C
:1003B00002D51C68E406F3D41C6A1C68E40608D560
:1003C0001C68E40605D51C68E40602D51C68E40632
:1003D000F3D4116002E01160F60737D011610524F3
:1003E0001C631D68ED0608D51D68ED0605D51D6862
:1003F000ED0602D51D68ED06F3D41D6A1D68ED06F5
:1004000008D51D68ED0605D51D68ED0602D51D68E9
:10041000ED06F3D4FF251D631E68F60608D51E6899
:10042000F60605D51E68F60602D51E68F606F3D454
:100430001E6A1F68FF06CED51F68FF06CBD51F6852
:10044000FF06C8D51F68FF06F3D4C4E71161202654
:100450001E631E68F60608D51E68F60605D51E68DA
:10046000F60602D51E68F606F3D41E6A1E68F60666
:1004700008D51E68F60605D51E68F60602D51E6864
:10048000F606F3D40609F6B21E6300031E68F606EC
:1004900008D51E68F60605D51E68F60602D51E6844
:1004A000F606F3D41E6A1E68F60608D51E68F60620
:1004B00005D51E68F60602D51E68F606F3D4000AB6
:1004C000F02606401E631868C00608D51868C006E6
:1004D00005D51868C00602D51868C006F3D4186A96
:1004E0001868C00608D51868C00605D51868C00683
:1004F00002D51868C006F3D4002018631868C00637
:1005000008D51868C00605D51868C00602D5186851
:10051000C006F3D4186A1868C00608D51868C00663
:1005200005D51868C00602D51868C006F3D4116056
:1005300002E01160C00735D011611C631868C00665
:1005400008D51868C00605D51868C00602D5186811
:10055000C006F3D4186A1868C00608D51868C00623
:1005600005D51868C00602D51868C006F3D41D6307
:100570001868C00608D51868C00605D51868C006F2
:1005800002D51868C006F3D4186A1E68F606D0D5DE
:100590001E68F606CDD51E68F606CAD51E68F60694
:1005A000F3D4C6E7F0BDC046F0B582B001267404AE
:1005B0006E4F3C616E4D03232B632B68DB0608D521
:1005C0002B68DB0605D52B68DB0602D52B68DB061E
:1005D000F3D42B6A2B68DB0608D52B68DB0605D520
:1005E0002B68DB0602D52B68DB06F3D40B0CDBB2E1
:1005F0002B632B68DB0608D52B68DB0605D52B683B
:10060000DB0602D52B68DB06F3D42B6A2B68DB06EE
:1006100008D52B68DB0605D52B68DB0602D52B68D1
:10062000DB06F3D40B0ADBB22B632B68DB0608D5A1
:100630002B68DB0605D52B68DB0602D52B68DB06AD
:10064000F3D42B6A2B68DB0608D52B68DB0605D5AF
:100650002B68DB0602D52B68DB06F3D4C9B229630D
:100660002968C90608D52968C90605D52968C906B3
:1006700002D52968C906F3D4296A2968C90608D5AC
:100680002968C90605D52968C90602D52968C90699
:10069000F3D4002A27D00194114631400091012A59
:1006A00024D10021009A002A019C304F1BD0FF2248
:1006B0002A632A68D20608D52A68D20605D52A6890
:1006C000D20602D52A68D206F3D42A6A2B68DB0642
:1006D00008D52B68DB0605D52B68DB0602D52B6811
:1006E000DB06F3D442543C6002B0F0BDB2430021BB
:1006F00003E00355891C9142D4D0FF242C632B685E
:10070000DB0608D52B68DB0605D52B68DB0602D592
:100710002B68DB06F3D42B6A2F68FF0608D52F68F9
:10072000FF0605D52F68FF0602D52F68FF06F3D414
:1007300043542C630C4634432B68DB0608D52B68E6
:10074000DB0605D52B68DB0602D52B68DB06F3D468
:100750002B6A2F68FF06CCD52F68FF06C9D52F68F6
:10076000FF06C6D52F68FF06F3D4C2E790320A40D1
:1007700010B14640F0B585B014460D460490080B04
:10078000FFF706FE012003904004C0490860C04AFC
:10079000062313631368DB0608D51368DB0605D54B
:1007A0001368DB0602D51368DB06F3D40195136AE0
:1007B0001368DB0608D51368DB0605D51368DB066E
:1007C00002D51368DB06F3D402940B46103B186085
:1007D00002E01860EC0737D008600527176315683A
:1007E000ED0608D51568ED0605D51568ED0602D5A8
:1007F0001568ED06F3D4156A1568ED0608D5156879
:10080000ED0605D51568ED0602D51568ED06F3D49D
:10081000FF2616631568ED0608D51568ED0605D5A3
:100820001568ED0602D51568ED06F3D4156A14684F
:10083000E406CED51468E406CBD51468E406C8D522
:100840001468E406F3D4C4E708600224146314684F
:10085000E40608D51468E40605D51468E40602D554
:100860001468E406F3D4146A019D1468E40608D5FC
:100870001468E40605D51468E40602D51468E40695
:10088000F3D42C0CE4B214631468E40608D514689D
:10089000E40605D51468E40602D51468E406F3D42A
:1008A000146A1468E40608D51468E40605D51468CB
:1008B000E40602D51468E406F3D42C0AE4B2146307
:1008C0001468E40608D51468E40605D51468E4063F
:1008D00002D51468E406F3D4146A1468E40608D553
:1008E0001468E40605D51468E40602D51468E40625
:1008F000F3D4ECB214631468E40608D51468E40673
:1009000005D51468E40602D51468E406F3D401930F
:10091000146A1468E40608D51468E40605D514685A
:10092000E40602D51468E406F3D4029B002B0AD037
:100930001D46039C25400095012B42D10025009BBC
:10094000002B00D080E00860019B02E01860E40703
:1009500035D0086017631468E40608D51468E40607
:1009600005D51468E40602D51468E406F3D4146AC5
:100970001468E40608D51468E40605D51468E4068E
:1009800002D51468E406F3D416631468E40608D5A7
:100990001468E40605D51468E40602D51468E40674
:1009A000F3D4146A1568ED06D0D51568ED06CDD5DB
:1009B0001568ED06CAD51568ED06F3D4C6E705B08F
:1009C000F0BDA343002502E0AD1C9D42B7D0049CBE
:1009D000645D14631468E40608D51468E40605D55C
:1009E0001468E40602D51468E406F3D4146A1468A3
:1009F000E40608D51468E40605D51468E40602D5B3
:100A00001468E406F3D42C4603990C4304990C5D56
:100A100014631468E40608D51468E40605D5146860
:100A2000E40602D51468E406F3D4146A174914687E
:100A3000E406C9D51468E406C6D51468E406C3D52F
:100A40001468E406F3D4BFE704994C5D146314689A
:100A5000E40608D51468E40605D51468E40602D552
:100A60001468E406F3D4146A08491468E40600D450
:100A700069E71468E40600D465E71468E40600D466
:100A800061E71468E406F0D45DE7C046A0320A408E
:100A900010B14640074908600868002808D0086877
:100AA000002805D00868002802D008680028F3D183
:100AB0007047C0460800202007490A68D20708D0BE
:100AC0000A68D20705D00A68D20702D00A68D2079E
:100AD000F3D1C2B28A6170470891104084B0FFF729
:100AE000CBFBFFF715FCFFF7FBFBFFF76FFB01AC40
:100AF0000025258102950195052620462946324686
:100B0000FFF752FD0B4F3846214600F019F80AA0B6
:100B100029463246FFF72EFE6420FFF7BBFF204632
:100B200029463246FFF740FD3846214600F008F8D6
:100B3000FEE7C046700C0000363636360000000076
:100B40000FB410B503A9044B044A029800F01BF837
:100B500010BC08BC04B01847B90A000000002020EF
:100B600002E008C8121F08C1002AFAD1704700002D
:100B70007047000000000000002001E001C1121FCA
:100B8000002AFBD17047FFB581B00546002706E07B
:100B900025280AD0049A039990476D1C7F1C287859
:100BA0000028F5D1384605B0F0BD002269786D1CEB
:100BB00010462E2913D1697804226D1C2A2909D1E7
:100BC00002996D1C01C9029109E00A23584330388B
:100BD00008186D1C29780B46303B092BF5D92B786A
:100BE000002BDFD0632B07D0732B10D0049A18464C
:100BF000039990477F1C2DE002996C460B78237077
:100C0000091D0291002161706E46012104E00299E4
:100C100040C902910021C94352070AD5002400E0CF
:100C2000641C84420DDA8C42FADB325D002AF7D173
:100C300007E0002400E0641C8C42FCDB305D0028EF
:100C4000F9D13F1904E03078049A761C0399904753
:100C5000641EF8D26D1CA2E708000400200000000A
:100C60000710001004000000180000000030000011
:100C700062756666203D2025730D0A00A00C0000F9
:100C80000000202008000000600B0000A80C0000FD
:100C90000800202008010000780B00000000000080
:080CA00000000000000000004C
:04000005000000C136
:00000001FF
