:020000040000FA
:1000000010012020D5000000D9000000DB00000016
:1000100000000000000000000000000000000000E0
:10002000000000000000000000000000DD000000F3
:100030000000000000000000DF000000610A000076
:10004000E3000000E3000000E3000000E300000024
:10005000E3000000E3000000E3000000E300000014
:1000600000000000E3000000E300000000000000CA
:1000700000000000E3000000E3000000E3000000D7
:10008000E3000000E3000000E3000000E3000000E4
:10009000E3000000E300000000000000000000009A
:1000A000E3000000E300000000000000000000008A
:1000B000E300000000000000E3000000E300000097
:1000C0000348854600F014FA00480047710B000011
:1000D0001001202003480047FEE7FEE7FEE7FEE7A9
:1000E000FEE7FEE7C1000000F0B5074608465840AD
:1000F00087B0C00F049048000E46590040084908D8
:10010000BC1A884105D2384631461E4617460B4672
:1001100002465800400810434CD0300D0390400573
:100120005900400D490D0590401A0290402872DA9E
:1001300018030121000B090508430190049800925F
:10014000002805D001995242002088410092019078
:10015000029840210A1A0199009800F036F90546E4
:100160000C466B4607CB00F051F9C0197141039A58
:100170000E0D0023D71756401A467A40164344D036
:10018000049A002A2DD0029A012A039A15DC12053E
:10019000C01A914101263605001C7141D20F059EFF
:1001A000D2070093019202962A46234600F04EF9A8
:1001B00007B0F0BD38463146FAE71605224A0F4629
:1001C000B218C01AB74101210905001C4F4100189F
:1001D0007F41114618187941E20F10436D196441AF
:1001E00013E0E2076D0815436408C2071443039A3D
:1001F00001261205C01A91413605001C7141CE0737
:10020000400830434908C01851412A46234600F0AF
:1002100010F9CDE7FFE7049801224000C117121A38
:1002200000238B4104983146C417381AA141EEE7E8
:1002300030B40124E407634030BC55E730B40124F6
:10024000E407614030BC4FE70000E0FFF0B51FB4A9
:1002500088B00B990998002448400999C00F4900BB
:1002600049080991C0070B990090490049080B9172
:1002700009990898A64608431CD00B990A98084388
:1002800018D0099801244000420D4800410D0998FA
:1002900024050003000B204309900B980003000B7A
:1002A00020430B9050181C4940180022019014461E
:1002B000104605E0002001460DB0F0BD032801DA2C
:1002C000034600E003239C46C11A0AAE0AE05F0021
:1002D00008ADED5B4F00F75B7D430027AA187C411A
:1002E000491C5B1E6145F2DD410004AB5A522104FA
:1002F000120C0A43240C401C0828DFDB01980290F2
:100300000099704601910090059B049A0799069800
:1003100000F09CF8D0E700000DFCFFFF0EB5C217FF
:10032000C10F5040CA0740180021054B02930192AB
:1003300000910A460B4600F089F803B000BD0000AA
:100340003304000070B5CD0F4A0009030123090BE7
:100350001B0519430B4BED070024520D9A4201DA9D
:10036000002070BD074B34339A4203DC9A1A00F028
:100370003CF802E00449511888402C43F1D0404237
:1003800070BD0000FF030000CDFBFFFF70B5044609
:10039000002903D000202022012310E0002801D0F2
:1003A0000020C043C046C0460DE02546D5408D42E2
:1003B00005D30D469540641B1D46954040191546D2
:1003C000521E002DF1DC214670BD10B5202A04DB41
:1003D0000146203A9140002010BD914020239C1AF4
:1003E0000346E3401943904010BD10B5202A04DBBA
:1003F0000846203AD040002110BD0B46D340D040E3
:100400002024A21A91400843194610BD10B5202A95
:1004100006DBCB170846203A1041C1170B4306E014
:100420000B461341D0402024A21A9140084319469C
:1004300010BD10B5002B08DA0024401C6141921851
:100440005B411A4301D14008400010BDF0B51FB414
:1004500082B005460C0003D0084600F0DBFB02E04A
:1004600000F0D8FB20300246009021462846FFF7D6
:10047000ACFF049B059A04460F46184311430843FA
:1004800014D0184610431BD0009840210A1A184671
:100490000599FFF7AAFF05460E46009A05990498AC
:1004A000FFF793FF084305D0012004E020463946BA
:1004B00007B0F0BD0020C11705430E432C4337435E
:1004C00000990E986305401A7905E40A00220C434E
:1004D000FD0A0A3002D500200146E9E7010510199E
:1004E00069410C9C0D9D00196941FFF7A2FFDFE7F0
:1004F000064C0125064E05E0E36807CC2B430C3C77
:1005000098471034B442F7D3FFF7DEFDEC0D00003E
:100510000C0E0000811E091F00BFFCD270470000B6
:10052000B0B51122120283580124A34383508B7863
:100530000C881C438B882343094C1C408358094D6D
:100540001D402B1983508B79CC791C43097A2143A8
:100550007E231940801842689A4351184160B0BD0B
:1005600018670000E798FDFF10B5012212038318F9
:100570000C789C604978815010BD000004488121AE
:100580000160416026480321016001647047C04654
:100590000480424010B5214981220A60204902238B
:1005A0000B600B6401220A6144B2002C01D40B6180
:1005B00000E00B600A600A61440601D40B6100E0B0
:1005C0000B600A600A61840601D40B6100E00B60D5
:1005D0000A600A61C40601D40B6100E00B600A6086
:1005E0000A61040701D40B6100E00B600A600A6134
:1005F000440701D40B6100E00B600A600A618407C4
:1006000001D40B6100E00B600A600A61C00701D1F0
:100610000B6100E00B600A600A6110BD0880424077
:1006200090120A40F0B593B01290DE4A8123136015
:10063000DD4F3E46103E022535603D6301243C609F
:10064000356034603D603C60136035603D633C6004
:10065000356034603C603D6034603C603D603460D7
:100660003C603D6034603C603D6034603C603D60B7
:1006700034603C603D6034603C603D6034603C60B0
:10068000CA48106035603460C94908688007119312
:100690001BD50868800718D50868800715D5086835
:1006A000800712D5086880070FD5086880070CD529
:1006B0000868800709D50868800706D5086880079C
:1006C00003D50868800700D54FE13C6013603560B2
:1006D0003D631298FFF75EFFB448B24A1060356080
:1006E0003460B349086880071BD50868800718D5AF
:1006F0000868800715D50868800712D50868800744
:100700000FD5086880070CD50868800709D50868E8
:10071000800706D50868800703D50868800700D5DC
:100720002FE13C60119B136035603D6313603560C1
:100730003D633C60356034603D603C601360356013
:100740003D633C60356034603C603D6034603C60DB
:100750003D6034603C603D6034603C603D603460CE
:100760003C603D6034603C603D6034603C603560BE
:1007700034603C608D4810603560346008688007E4
:1007800023D50868800720D5086880071DD508682C
:1007900080071AD50868800717D50868800714D520
:1007A0000868800711D5086880070ED5086880079B
:1007B0000BD50868800708D50868136035603D636D
:1007C0003C603D6034603560B0E73C60136035608C
:1007D0003D63764810603C603460086809903C6076
:1007E000346008680A903C60346008680B903C6094
:1007F000346008680C903C60346008680D903C6080
:10080000346008680E903C603460086810903C606A
:10081000346008680F903C60136035603D633C6055
:100820003D603D6034603C603560604810603C6015
:100830003460086803903C603460086802903C6053
:100840003460086801903C603460086805903C6042
:100850003460086804903C603460086806903C602E
:100860003460086808903C603460086807903C6019
:10087000136035603D633C603D60356034603C60D2
:100880003560136035603D633C603D6034603560C9
:1008900009984600042426400A98284080198000C0
:1008A0000B994E00264030180C99294008188000FA
:1008B0000D994900214008180E9929400818400058
:1008C0001099294008180F998907C90F081812991B
:1008D000F52912D0F32945D1FF210231C0B2484396
:1008E000FFF71CFD0022394BFFF7B0FC3A4A3B4BA7
:1008F000FFF7ACFC3A4A3B4B2EE0029A2A400399A0
:100900004900214051188900019A52002240511893
:10091000059A2A4051188900049A52002240511821
:10092000069A2A4051184900C9B2C0B200020818FC
:1009300008992940401807998907C90F4018FFF7FF
:10094000EDFC0024214B2246FFF780FC204B224681
:10095000FFF77CFC1F4B2246FFF7C6FBFFF7F2FCBC
:1009600013B0F0BD002013B0F0BD0868136035600F
:100970003D633C603D60346035600EA000F020FABD
:10098000A7E608681198106035603D633C603D60E3
:10099000346035600AA000F013FA0549119B014A42
:1009A000C4E6C04608804240A0120A40810004000C
:1009B00080130A406572726F72202D310D000000A5
:1009C0006572726F72202D320D0000000000F03E43
:1009D00000405F40000018C0D7A3703D0AF7654093
:1009E000CDCCCCCCCC6C47C010B515481549416076
:1009F000154A5160154B5960154C616015490160ED
:100A00001160196021601020FFF784FD1248002159
:100A100001600320C14311480246083A13680B40A5
:100A200013600168012291430160110203688B4346
:100A300003601103001F02680A43026010BDC04634
:100A400000080A40030000B100280A400088104056
:100A5000000800400100002608030B4008010B407D
:100A6000EFF3108072B638480168002902D001689F
:100A7000491E016062B67047084809494160FF217C
:100A80000906084A13688B43032189075918116026
:100A900000218160072101607047C04610E000E03E
:100AA000FF7C000020ED00E010B5174882210160B6
:100AB00016494160164C17492046FFF755FD164967
:100AC0002046FFF72DFD0321CA0314480368934312
:100AD00003600269124B13401A33036142690A43EF
:100AE0003C218A434261416801221140436893439B
:100AF0005918416091020B4B1C680C431C60016843
:100B00001143016010BDC046548042408200040081
:100B100000801040E00D0000E20D00000091104048
:100B20000000FFFF2890104007490860086800286F
:100B300008D00868002805D00868002802D0086896
:100B40000028F3D17047C0460800202007490A68F2
:100B5000D20708D00A68D20705D00A68D20702D0A7
:100B60000A68D207F3D1C2B28A6170470891104077
:100B7000FFF73AFFFFF798FFFFF700FDFFF77CFF55
:100B80000120C0030E4908600E49086014A5F32037
:100B9000FFF748FD0646F520FFF744FD0746002411
:100BA00009A03146224600F025F82846394622465B
:100BB00000F020F87D20C000FFF7B6FFE7E7C04651
:100BC00080E200E000E100E054656D7065726174E0
:100BD0007572653A2025642E256420430A000000C2
:100BE00048756D69646974793A2025642E256420FE
:100BF00025250A000FB410B503A9044B044A029836
:100C000000F036F810BC08BC04B018474D0B0000CB
:100C1000000020202021020C01D010211046020AE1
:100C200001D010460839020901D01046091F820878
:100C300001D01046891E420801D0881E7047081A4C
:100C4000704700000000000002E008C8121F08C141
:100C5000002AFAD170470000704700000000000031
:100C6000002001E001C1121F002AFBD170470000E3
:100C7000FFB58DB00446002506E025280AD0109A5D
:100C80000F999047641C6D1C20780028F5D12846E8
:100C900011B0F0BD00270121484A009700E007434A
:100CA000641C23780846203B98401042F7D12078F6
:100CB0002E2817D1042007436078641C2A280CD101
:100CC0000E98641C02C800910E900BE000990A2255
:100CD000514330394018641C009020780146303967
:100CE0000929F3D920780028D1D0642808D06928B0
:100CF00006D075281ED0109A0F9990476D1C5BE0A6
:100D00000A200E99019001C90E91002802DA404292
:100D10002D2102E0390504D52B216A4611720121EB
:100D200003E0F90704D02021F7E70BAE0B910DE0AB
:100D30000021FAE70A200E99019001C90E91F7E708
:100D40000199FFF723FB3031761E31700028F7D16F
:100D500003A8801B20300190780701D5009801E09E
:100D6000012000900199884201DD401A00E0002036
:100D70000027009006E002A8109AC05D0F999047E6
:100D80006D1C7F1C0B988742F5DB04E0109A302025
:100D90000F9990476D1C0099481E00900029F5DCC2
:100DA00005E03078109A761C0F9990476D1C0199D8
:100DB000481E01900029F4DC641C65E70928010045
:100DC00010B5044601E0FFF7C1FE2078641C03491A
:100DD0000028F8D10A20FFF7B9FE10BD000020203E
:100DE000040000001800000000300000100E000099
:100DF0000000202008000000480C0000180E000031
:100E00000800202008010000600C00000000000025
:080E10000000000000000000DA
:04000005000000C136
:00000001FF
