:020000040000FA
:10000000680120204D010000510100005301000053
:1000100000000000000000000000000000000000E0
:10002000000000000000000000000000550100007A
:10003000000000000000000057010000250600003D
:100040005B0100005B0100005B0100005B01000040
:100050005B0100005B0100005B0100005B01000030
:10006000000000005B0100005B01000000000000D8
:10007000000000005B0100005B010000550600006D
:100080005B0100005B0100005B0100005B01000000
:100090005B0100005B0100000000000000000000A8
:1000A0005B0100005B010000000000000000000098
:1000B0005B010000000000005B0100005B0100002C
:1000C00000F002F800F032F80CA030C8083824180C
:1000D0002D18671EA246AB4654465D46AC4201D180
:1000E00000F024F87E460F3EB6460FCC0126334280
:1000F00000D0FB1A3343A246AB4618476407000002
:1001000074070000000000000023002400250026E2
:10011000103A01D378C1FBD8520700D330C100D5C3
:100120000B6070471FB51FBD10B510BD00F027F85C
:100130001146FFF7F7FF00F04DFB00F03FF803B466
:10014000FFF7F2FF03BC00F045F800000648004747
:10015000FEE7FEE7FEE7FEE7FEE7FEE703480449A9
:10016000024A044B70470000C100000068002020D4
:10017000680120206800202070477047704775464E
:1001800000F024F8AE46050069465346C008C0009A
:10019000854618B020B5FFF7E1FF60BCB6460026E3
:1001A0000027C0C5C0C5C0C5C0C5C0C5C0C5C0C585
:1001B000C0C5403D490849008D46704710B504460A
:1001C000C046C0462046FFF7BAFF10BD0048704742
:1001D0000000202001491820ABBEFEE726000200E7
:1001E000704782B001900199881E001F00BFFCD2A9
:1001F000009002B0704784B003900291019203987E
:100200000068009000980199884300900098029936
:10021000019A114008430399086004B0704784B004
:100220000390029101920398006800900098019950
:100230008843009000980299019A1140084303995D
:10024000086004B0704784B0039002910192039853
:1002500000680090009801998843009000980299E6
:10026000019A114008430399086004B0704782B0B6
:10027000019000910098019995225201885002B096
:10028000704782B001900091009801999522520127
:10029000885002B07047000082B001900091009831
:1002A0000199024A885002B07047C046D01200003F
:1002B00081B0009000990120C2025048885001B0DE
:1002C0007047C04681B00090009881000F4A81209D
:1002D000885001B07047C04682B0019000910098EC
:1002E0000349084301998900084A885002B07047C1
:1002F0008000040082B001900091009880210843A2
:1003000001998900014A885002B070470480424038
:1003100081B000900099604A6048885001B07047F1
:1003200082B00190009100980199024A885002B071
:100330007047C046901200000649086801229043A9
:100340000860704703490868012212029043086060
:100350007047C04608010B40034908680122120398
:10036000104308607047C04604010B4081B001464D
:100370006846017000780249086001B07047C046C5
:1003800008030B4080B582B0014601A801700178D6
:1003900002480322FFF743FF02B080BD00010B407B
:1003A00081B00090009911200202885801239843DF
:1003B000885001B0704781B000900099112002026E
:1003C000885801231843885001B0704782B00190CB
:1003D0000091009B0199034A88581843885002B045
:1003E0007047C0462810000081B00090009901209D
:1003F000C2020248885001B07047C0460100002682
:1004000081B000900098812149014058C0B201B0EC
:100410007047000080B582B0019000910198FFF70D
:10042000BFFF0198112109024018009A11889378A2
:10043000194392881143084AFFF7DDFE01982A49C3
:100440004018009A9179D3791943127A11437E2288
:10045000FFF7D1FE02B080BD1867020081B00090A6
:100460000098034940580121084001B07047C04638
:100470000811000081B00090009802494058C0B2B5
:1004800001B070472411000081B000900099024A29
:100490000248885001B0704704080000030000B112
:1004A00080B584B003900291019203980B494018E3
:1004B00002990B4AFFF7C7FE03980A4940180199B1
:1004C0003F22FFF7C0FE0399074A88188958012286
:1004D0001140FFF7B8FE04B080BDC0461011000007
:1004E000FFFF0000141100000411000082B0019011
:1004F0000091009800780199044A8850009840784B
:10050000019901221203885002B0704708100000C0
:1005100080B582B001900091019811210902401824
:1005200000990322D203FFF78EFE02B080BD82B095
:100530000190684601700078019989225201885023
:1005400002B0704780B582B02320FFF7BBFE0120C8
:1005500081030191B3480090FFF793FE0098019941
:10056000FFF79AFE02B080BD80B582B000200190F6
:10057000FFF7FCFE0198FFF705FFFFF7DDFEFFF731
:10058000E1FEFFF7E9FE02B080BD80B500F004F89F
:10059000FFF7EAFF80BD000080B584B0A14801905C
:1005A000FFF7B6FE0A480290FFF7B2FEA848039094
:1005B000FFF76AFF0198FFF77BFE0298FFF778FECE
:1005C0000398FFF711FF1020FFF70BFE04B080BD6A
:1005D00000200A4080B584B002900298401E000EB0
:1005E000002803D0FFE70120039011E00298401E8D
:1005F0000949086000200190C043032100F098F8E9
:10060000019806490860064A072111600390FFE738
:10061000039804B080BDC04614E000E018E000E09C
:1006200010E000E081B0EFF3108072B600906848EF
:100630000068002805D0FFE765490868401E08608B
:10064000FFE762B601B0704780B57D200002FFF77A
:10065000C1FF80BD80B57E48FFF7D2FE0B280AD1CE
:10066000FFE77B48FFF706FF01460448017000786A
:1006700000F0DAF800E0FFE780BDC046640020200B
:1006800080B582B0142002210091FFF733FE00995B
:100690001520FFF721FE0E496D480190FFF726FF58
:1006A00001980C49FFF7B6FE01980021FFF730FFD3
:1006B00001981A210322FFF7F3FE01980121890214
:1006C000FFF784FE0198FFF776FE02B080BDC046BA
:1006D000540800005608000081B0014668460170C9
:1006E00000214056002809D4FFE7684601781F2002
:1006F00001400120884002490860FFE701B07047CF
:1007000080E200E081B00146684601700021405659
:10071000002809D4FFE7684601781F200140012026
:10072000884002490860FFE701B0704700E100E03F
:1007300070B582B0024601A80270009100214056B7
:10074000002816D4FFE7002401A908570322D34349
:100750001840174A805809578C07E50EFF24AC4013
:10076000A043009CA401E4B2AC402043194088504F
:100770001AE001A908780F24204008380322D34347
:1007800018400A4A8058002549578D07EE0EFF256C
:10079000B540A843009DAD01EDB2B54028432140CE
:1007A000083919408850FFE702B070BD1CED00E029
:1007B00000E400E081B00090009805490860FFE780
:1007C00003480068002801D0FFE7F9E701B070474F
:1007D0006000202080B586B000200590FFF7D5FE90
:1007E000FFF7B0FEFFF74CFFFFF72EFF0F2004903E
:1007F000FFF772FF0498FFF785FFFFE701208103F1
:10080000029108480190FFF78BFD7D20C000039006
:10081000FFF7D0FF01980299FFF729FD0398FFF732
:10082000C9FFEBE700000A4080B582B001A908705B
:10083000FFE70748FFF712FE002801D0FFE7F8E7BF
:1008400001A801780248FFF772FE02B080BDC046E1
:10085000008010400400000018000000003000007C
:10086000700800000000202068010000080100005E
:04000005000000C136
:00000001FF
